:100440001200031204781200261204AA2000F730CA
:1004500003F47B017A00799A1203CA7B017A00794E
:10046000AA1203CA7B017A0079BA1203CA7B017A05
:080470000079CA1203CA80CE14
:10025100C102410005004100070041000C004100BE
:100261000200410000004100040041000300410080
:100271000A00410001004100080041000600410060
:060281000B004100090022
:1004DC00AB07AA06EB5403700AFC7D641201E6ED2F
:1004EC004C700FAE02AF037C017D901201E6ED4C17
:0704FC007003D38001C3224D
:10033300EF14B40C00504B90034875F003A4C5832D
:1003430025F0C5837302036C02037002036C02037E
:100353008302036C02038302036C02036C020383B4
:1003630002036C02038302036C791F8015AE04AF92
:10037300051204DC50047F1D80027F1CA907800244
:04038300791EAF012F
:010387002253
:10002600200003020140E4FF74532FF582E43400FC
:10003600F583E0FE740D2FF582E43400F583EEF0CF
:100046000FEFB446E3900014E075F00AA4FFA3E0B6
:100056002F24F8900005F0C39418400CE075F018B2
:1000660084E5F0F0D2028002C202900005E0FF753E
:10007600F00A842430FE900007F0EF75F00A84E55C
:10008600F02430FF90000CF09000BAEEF0A3EFF0F1
:10009600900016E09000BEF0900017E09000BFF0D0
:1000A600900018E09000C2F0900019E09000C3F0B4
:1000B600900021E09000AAF0900022E09000ABF0C2
:1000C600900023E09000ADF0900024E09000AEF0A8
:1000D60090002BE09000AFF090002DE09000B1F082
:1000E60090002EE09000B2F090002FE09000B3F068
:1000F600900030E09000B5F0900031E09000B6F04E
:10010600900038E09000B7F090004AE09000CCF004
:1001160090004BE09000CDF0900048E09000D0F0C9
:10012600900049E09000D1F0900046E09000D4F0B5
:0A013600900047E09000D5F0C203EE
:01014000229C
:10028700C1036040009AB1B1B6B7B6A8CEBB0000B3
:1002970000000000000078782E7878782078787849
:1002A7002E78780000002D2DCAB12D2DB7D62D2D13
:1002B700C3EB0000000032302D2DC4EA2D2DD4C22F
:0602C7002D2DC8D500003A
:10054F005390FE4390024390047F01120566E580AD
:06055F005480FF5390FBE5
:010565002273
:100503009000DFEFF012054FEF70FA5390FE539017
:10051300FD9000DFE0F58043900400000000000040
:0605230000005390FB22D2
:100529009000DDEFF012054FEF70FA439001539000
:10053900FD9000DDE0F5804390040000000000001C
:0605490000005390FB22AC
:100388009000DDEFF0A3EDF07F301205039000DD63
:10039800E024FE601214601714601C24037022907D
:1003A80000DEE0247F80169000DEE0248F800E902F
:1003B80000DEE0248780069000DEE02497FF120527
:0203C80003220E
:040406007B017D01F8
:10040A009000DAEBF0A3EAF0A3E9F0120388900077
:10041A00DAE0FBA3E0FAA3E0F91201CD601790003D
:10042A00DAA3E475F00112023BA9F0FA1201CDFF3A
:05043A0012052980D924
:01043F00229A
:100478007F301205037F0A1205667F301205037F5D
:100488000A1205667F0C1205037F0A1205667F01B2
:100498001205037F1E1205667F061205037F1E02E2
:0204A8000566E7
:1004AA0020032C7A00799A7F011204067A0079AA2D
:1004BA007F021204067B017A0079BA7D017F03125A
:1004CA00040A7B017A0079CA7D017F0412040AD2E8
:0204DA000322FB
:10056600AE071FEE600B007E0B7DBEDDFEDEFC805F
:01057600EF95
:010577002261
:0602CD00C1004100990090
:1000030075985053877F758920758BFD758DFDC25B
:0A001300ABD28ED29CD2ACD2AF2249
:030023000202D402
:0B02D400C0E0C083C082C0D075D0081D
:1002DF00E4FF30983FC2ACAF99C298EFB4240790B7
:1002EF000099E4F0C200900099E0FE04F074532EE0
:1002FF00F582E43400F583EFF0900099E02452F595
:10030F0082E43400F583E0B42A089000997445F034
:0B031F00D200D2AC309904C299C20198
:09032A00D0D0D082D083D0E032A3
:090578002001FDEFD201F59922EA
:1003CA009000DAEBF0A3EAF0A3E9F09000DAE0FBA0
:1003DA00A3E0FAA3E0F91201CD60179000DAA3E4D2
:1003EA0075F00112023BA9F0FA1201CDFF1205784D
:0C03FA0080D97F0D1205787F0A0205787B
:03000000020141B9
:0C014100787FE4F6D8FD7581200201886B
:1001CD00BB010689828A83E0225002E722BBFE0230
:0901DD00E32289828A83E4932263
:1001E600BC000BBE0029EF8DF084FFADF022E4CCFD
:1001F600F875F008EF2FFFEE33FEEC33FCEE9DECC6
:10020600984005FCEE9DFE0FD5F0E9E4CEFD22ED0B
:10021600F8F5F0EE8420D21CFEADF075F008EF2F55
:10022600FFED33FD4007985006D5F0F222C398FD46
:050236000FD5F0EA22E3
:10023B00A3F8E0C5F025F0F0E58215827002158376
:06024B00E0C838F0E822D3
:10014D00020440E493A3F8E493A34003F68001F284
:10015D0008DFF48029E493A3F85407240CC8C333B3
:10016D00C4540F4420C8834004F456800146F6DF82
:10017D00E4800B0102040810204080900251E47EBF
:10018D00019360BCA3FF543F30E509541FFEE49377
:10019D00A360010ECF54C025E060A840B8E493A33E
:1001AD00FAE493A3F8E493A3C8C582C8CAC583CA69
:1001BD00F0A3C8C582C8CAC583CADFE9DEE780BE21
:0102D300002A
:00000001FF
